:1000000019C033C032C031C030C02FC02EC02DC087
:100010002CC02BC02AC029C028C027C026C025C09C
:100020004CC023C022C021C020C01FC01EC01DC0A4
:100030001CC01BC011241FBECFEFD4E0DEBFCDBF5C
:1000400011E0A0E0B1E0E0E2F4E002C005900D9222
:10005000AA30B107D9F711E0AAE0B1E001C01D92C2
:10006000AD31B107E1F79ED0D9C1CACF0097C1F039
:100070008F3F910569F060F02FEB39E346E02150A6
:1000800030404040E1F700C000008F5F9109EECFA3
:10009000EFECF7E03197F1F700C000000197E6CFF1
:1000A0000895882311F0289A0895289808958823A0
:1000B00011F05F9A08955F9808951F920F920FB6FE
:1000C0000F9211248F9380910A018F5F80930A0110
:1000D0008F910F900FBE0F901F901895209A28981F
:1000E000579A5F980895219A29988AE18093810010
:1000F00082E88093800080E29EE490938700809362
:1001000086008CED95E09093890080938800089597
:1001100090E086509F4F880F991F880F991F9093EA
:1001200089008093880008958091880090918900CB
:10013000885E93409695879596958795089538980B
:1001400039983A983B983C983D9855985698409ADB
:10015000419A429A439A449A459A5D9A5E9A0895C2
:100160004E9910C04D9910C0309910C0319910C0EF
:10017000329910C0339910C0349910C0359B10C00B
:1001800088E0089581E0089582E0089583E008956D
:1001900084E0089585E0089586E0089587E0089555
:1001A00080E008959BDF9FDFCADF85B5856085BD50
:1001B00080916E00816080936E00789482E8A8DF61
:1001C00086E0482E512C93E0692E712C02E010E05D
:1001D000C1E0D0E0EE24EA94FE2C3EEFC32EDD24F5
:1001E000DA944CEFA42EBB24BA9458EE852E53E03B
:1001F000952EB6DF90E090931601809315018091C3
:10020000150190911601019729F4B0920E01A09268
:100210000D0147C08091150190911601029729F4B4
:10022000D0920E01C0920D013CC0809115019091B9
:100230001601039729F4F0920E01E0920D0131C0EE
:100240008091150190911601049731F0809115016C
:1002500090911601059729F4D0930E01C0930D01DA
:1002600020C08091150190911601069729F41093F2
:100270000E0100930D0115C080911501909116019A
:10028000079729F470920E0160920D010AC08091C7
:10029000150190911601089739F450920E01409281
:1002A0000D0116BC10920A0140910D0150910E01F2
:1002B0002091040130910501429FC001439F900DA0
:1002C000529F900D112490931C0180931B0120914B
:1002D0000D0130910E0180910F0190911001281BAA
:1002E000390B4091020150910301249FC001259FC9
:1002F000900D349F900D11246091060170910701BB
:1003000066D0709312016093110180911901909150
:100310001A0120910D0130910E01820F931F9093CD
:100320001A01809319014091190150911A012091ED
:10033000000130910101429FC001439F900D529FE7
:10034000900D1124B40143D07093180160931701EC
:1003500080911B0190911C0140911101509112015B
:100360002091170130911801840F951F820F931F60
:100370002091080130910901820F931F909314017D
:10038000809313018091130190911401C1DE80913B
:100390000D0190910E019093100180930F018091B7
:1003A000150190911601892B41F0809115019091D2
:1003B000160190930C0180930B012FEF80E792E0E0
:1003C000215080409040E1F700C0000012CF97FB21
:1003D000072E16F4009406D077FD08D00BD007FC4A
:1003E00005D03EF4909581959F4F08957095619545
:1003F0007F4F0895AA1BBB1B51E107C0AA1FBB1F5B
:10040000A617B70710F0A61BB70B881F991F5A95A0
:10041000A9F780959095BC01CD010895F894FFCF80
:0A042000010001000100020082004B
:00000001FF
