:1000000019C02BC02AC029C028C027C026C025C0BF
:1000100024C023C022C021C020C01FC01EC01DC0DC
:100020001CC01BC01AC019C018C017C016C015C00C
:1000300014C013C011241FBECFEFD4E0DEBFCDBF6C
:1000400011E0A0E0B1E0EAE3F2E002C005900D9219
:10005000A231B107D9F7C2D0EEC0D2CF389A399ABF
:100060003A9A20982198289A299A3D983C98459A3E
:10007000449A89E18093B80081E08093B9000895A3
:100080005B9A85E38A95F1F700005B9808959BB130
:100090009F709BB99BB1807F892B8BB9F1CFCF9398
:1000A000C82F5A9AF4DF8C2F8295807FF0DF8AE781
:1000B0008A95F1F700C0CF910895CF93C82F5A9831
:1000C000E6DF8C2F8295807FE2DF80E78A95F1F76B
:1000D000CF91089581E0F1DF8FE99FE00197F1F77B
:1000E00000C0000008958AB18C6F8AB98BB183700B
:1000F0008BB98FE295E70197F1F700C0000080E32C
:10010000C6DF8FE097E20197F1F700C00000B8DF8B
:100110008FEC97E00197F1F700C00000B1DF8FECA2
:1001200097E00197F1F700C0000080E2B0DF8FE0B8
:1001300097E20197F1F700C0000088E2BEDF8CE093
:10014000BCDF86E0BADFC6CF82E0B7DF8FE99FE091
:100150000197F1F700C000000895623059F018F4DB
:10016000613031F00895633039F0643039F008952A
:10017000805805C0805403C0805701C080539DCF74
:10018000CF93DF93EC018991882311F088DFFBCFB7
:10019000DF91CF910895EF92FF921F93CF93DF935A
:1001A00000D0CDB7DEB728E0829FC0011124806463
:1001B00069837A8382DF6981E62E7A81F72E18E0DF
:1001C000F70181917F016BDF1150D1F70F900F90F4
:1001D000DF91CF911F91FF90EF90089584DF3EDF74
:1001E00079DF80E091E0CCDF62E080E0B6DF87E09D
:1001F00091E0C6DF81E01999FECF2FEF30E792E062
:10020000215030409040E1F700C00000882329F0E1
:10021000409A419A429A80E004C04098419842989E
:1002200081E02FEF30E792E0215030409040E1F73D
:0A02300000C00000E0CFF894FFCFFB
:10023A00526574616B65007374657020666F7572C0
:02024A000000B2
:00000001FF
