:1000000019C021C02BC01EC01DC01CC01BC01AC0FF
:1000100019C018C017C016C015C02BC013C012C01D
:1000200011C010C00FC00EC00DC00CC00BC00AC064
:1000300009C008C011241FBECFEFD4E0DEBFCDBF82
:10004000EAD010C1DDCF1F920F920FB60F9211248C
:1000500041980F900FBE0F901F9018951F920F920E
:100060000FB60F921124419A0F900FBE0F901F9060
:1000700018951F920F920FB60F9211248F939F9392
:1000800088B194E0892788B99F918F910F900FBE16
:100090000F901F901895389A399A3A9A209821987B
:1000A000289A299A3D983C98459A449A89E18093E8
:1000B000B80081E08093B90008955B9A85E38A9542
:1000C000F1F700005B9808959BB19F709BB99BB1BD
:1000D000807F892B8BB9F1CFCF93C82F5A9AF4DF49
:1000E0008C2F8295807FF0DF8AE78A95F1F700C038
:1000F000CF910895CF93C82F5A98E6DF8C2F829521
:10010000807FE2DF80E78A95F1F7CF91089581E063
:10011000F1DF8FE99FE00197F1F700C0000008953B
:100120008AB18C6F8AB98BB183708BB98FE295E7F6
:100130000197F1F700C0000080E3C6DF8FE097E28F
:100140000197F1F700C00000B8DF8FEC97E001974E
:10015000F1F700C00000B1DF8FEC97E00197F1F7F5
:1001600000C0000080E2B0DF8FE097E20197F1F776
:1001700000C0000088E2BEDF8CE0BCDF86E0BADFB2
:10018000C6CF82E0B7DF8FE99FE00197F1F700C0AB
:1001900000000895623059F018F4613031F008958C
:1001A000633039F0643039F00895805805C08054C8
:1001B00003C0805701C080539DCFCF93DF93EC01E4
:1001C0008991882311F088DFFBCFDF91CF910895CB
:1001D000EF92FF921F93CF93DF9300D0CDB7DEB79E
:1001E00028E0829FC0011124806469837A8382DFC2
:1001F0006981E62E7A81F72E18E0F70181917F015F
:100200006BDF1150D1F70F900F90DF91CF911F91BD
:10021000FF90EF9008953FDF8AB184708AB98AB168
:1002200088708AB95A9A5B9A389A85B5856085BD77
:100230008091810084608093810080916F00816053
:1002400080936F008AE0809369008DB383608DBBDB
:10025000789491E086B58436E8F388B1892788B927
:0802600016BCF8CFF894FFCFA3
:00000001FF
