:1000000019C050C027C026C025C024C023C022C0AC
:1000100021C020C01FC08FC01DC01CC01BC01AC083
:1000200019C018C017C016C015C014C013C012C024
:1000300011C010C011241FBECFEFD4E0DEBFCDBF72
:1000400011E0A0E0B1E001C01D92AE30B107E1F7D0
:10005000F2D03FC1D5CF0097C1F08F3F910569F035
:1000600060F02FEB39E346E0215030404040E1F7AB
:1000700000C000008F5F9109EECFEFECF7E0319701
:10008000F1F700C000000197E6CF0895882311F032
:10009000289A089528980895882311F05F9A089562
:1000A0005F9808951F920F920FB60F9211248F93AD
:1000B0009F93EF93FF93E0910A01F0910B0186B5B6
:1000C00090E0EE0FFF1FEE5FFE4F9183808316BC22
:1000D00080910A0190910B01019690930B018093FE
:1000E0000A0180910A0190910B01837099279093E6
:1000F0000B0180930A01109285001092840081E028
:1001000090E0909301018093000180910C01909107
:100110000D01E3E0880F991FEA95E1F790938900BC
:1001200080938800FF91EF919F918F910F900FBE68
:100130000F901F9018951F920F920FB60F921124D7
:100140002F933F934F935F936F937F938F939F93DF
:10015000AF93BF93EF93FF938091000190910101C2
:10016000892BA9F064D010928500109284008091B0
:100170000C0190910D0163E070E097D070938900BD
:1001800060938800109201011092000101C051D0CB
:10019000FF91EF91BF91AF919F918F917F916F915F
:1001A0005F914F913F912F910F900FBE0F901F9035
:1001B0001895209A2898579A5F980895239A2B9813
:1001C00083E08093B100E0EBF0E08081836880837E
:1001D0001092B30008958093B30008958091B30006
:1001E00008953D984598ECE7F0E0108280818064A6
:1001F0008083808185608083EAE7F0E010828081DF
:10020000866080838081806E8083089580917800ED
:100210009091790096958795969587950895809108
:100220007800909179000895219A29980895299A43
:10023000089529980895BDDFF7DFC0DFD2DF8091F0
:100240006900826080936900E89A80916F00826003
:1002500080936F00809181008B608093810085B5D1
:10026000856085BD7894D2DFB6DFE3DF609102015F
:100270007091030180910401909105014091060164
:10028000509107012091080130910901860F971FB5
:10029000840F951F820F931F969587959695879546
:1002A00090930D0180930C01DECFAA1BBB1B51E183
:1002B00007C0AA1FBB1FA617B70710F0A61BB70BD6
:1002C000881F991F5A95A9F780959095BC01CD017B
:0602D0000895F894FFCF31
:00000001FF
